{
  "contractName": "Auction",
  "abi": [
    {
      "inputs": [],
      "stateMutability": "nonpayable",
      "type": "constructor"
    },
    {
      "anonymous": false,
      "inputs": [
        {
          "indexed": true,
          "internalType": "address",
          "name": "_winner",
          "type": "address"
        },
        {
          "indexed": false,
          "internalType": "uint256",
          "name": "_amount",
          "type": "uint256"
        }
      ],
      "name": "AuctionEnded",
      "type": "event"
    },
    {
      "anonymous": false,
      "inputs": [
        {
          "indexed": true,
          "internalType": "address",
          "name": "_bidder",
          "type": "address"
        },
        {
          "indexed": false,
          "internalType": "uint256",
          "name": "_amount",
          "type": "uint256"
        }
      ],
      "name": "Bid",
      "type": "event"
    },
    {
      "anonymous": false,
      "inputs": [
        {
          "indexed": true,
          "internalType": "address",
          "name": "_bidder",
          "type": "address"
        },
        {
          "indexed": false,
          "internalType": "uint256",
          "name": "_amount",
          "type": "uint256"
        }
      ],
      "name": "Withdraw",
      "type": "event"
    },
    {
      "inputs": [
        {
          "internalType": "address",
          "name": "",
          "type": "address"
        }
      ],
      "name": "bids",
      "outputs": [
        {
          "internalType": "uint256",
          "name": "",
          "type": "uint256"
        }
      ],
      "stateMutability": "view",
      "type": "function"
    },
    {
      "inputs": [],
      "name": "endTimestamp",
      "outputs": [
        {
          "internalType": "uint256",
          "name": "",
          "type": "uint256"
        }
      ],
      "stateMutability": "view",
      "type": "function"
    },
    {
      "inputs": [],
      "name": "highestBid",
      "outputs": [
        {
          "internalType": "uint256",
          "name": "",
          "type": "uint256"
        }
      ],
      "stateMutability": "view",
      "type": "function"
    },
    {
      "inputs": [],
      "name": "highestBidder",
      "outputs": [
        {
          "internalType": "address",
          "name": "",
          "type": "address"
        }
      ],
      "stateMutability": "view",
      "type": "function"
    },
    {
      "inputs": [],
      "name": "isEnded",
      "outputs": [
        {
          "internalType": "bool",
          "name": "",
          "type": "bool"
        }
      ],
      "stateMutability": "view",
      "type": "function"
    },
    {
      "inputs": [],
      "name": "owner",
      "outputs": [
        {
          "internalType": "address",
          "name": "",
          "type": "address"
        }
      ],
      "stateMutability": "view",
      "type": "function"
    },
    {
      "inputs": [],
      "name": "startTimestamp",
      "outputs": [
        {
          "internalType": "uint256",
          "name": "",
          "type": "uint256"
        }
      ],
      "stateMutability": "view",
      "type": "function"
    },
    {
      "inputs": [],
      "name": "getOwner",
      "outputs": [
        {
          "internalType": "address",
          "name": "",
          "type": "address"
        }
      ],
      "stateMutability": "view",
      "type": "function"
    },
    {
      "inputs": [],
      "name": "bid",
      "outputs": [],
      "stateMutability": "payable",
      "type": "function"
    },
    {
      "inputs": [],
      "name": "endAuction",
      "outputs": [],
      "stateMutability": "nonpayable",
      "type": "function"
    },
    {
      "inputs": [],
      "name": "withdraw",
      "outputs": [],
      "stateMutability": "nonpayable",
      "type": "function"
    },
    {
      "inputs": [],
      "name": "getHighestBidder",
      "outputs": [
        {
          "internalType": "address",
          "name": "",
          "type": "address"
        }
      ],
      "stateMutability": "view",
      "type": "function"
    },
    {
      "inputs": [],
      "name": "getHighestBid",
      "outputs": [
        {
          "internalType": "uint256",
          "name": "",
          "type": "uint256"
        }
      ],
      "stateMutability": "view",
      "type": "function"
    }
  ],
  "bytecode": "0x608060405234801561001057600080fd5b50336000806101000a81548173ffffffffffffffffffffffffffffffffffffffff021916908373ffffffffffffffffffffffffffffffffffffffff160217905550426001819055506000600360006101000a81548160ff021916908315150217905550610d91806100826000396000f3fe6080604052600436106100c15760003560e01c80638da5cb5b1161007f578063a85adeab11610059578063a85adeab14610226578063d57bde7914610251578063e6fd48bc1461027c578063fe67a54b146102a7576100c1565b80638da5cb5b146101a557806391f90157146101d0578063a4fd6f56146101fb576100c1565b80623495a4146100c65780631998aeef146100f15780633ccfd60b146100fb5780634979440a1461011257806362ea82db1461013d578063893d20e81461017a575b600080fd5b3480156100d257600080fd5b506100db6102be565b6040516100e8919061090e565b60405180910390f35b6100f96102e8565b005b34801561010757600080fd5b50610110610566565b005b34801561011e57600080fd5b5061012761069f565b6040516101349190610942565b60405180910390f35b34801561014957600080fd5b50610164600480360381019061015f919061098e565b6106a9565b6040516101719190610942565b60405180910390f35b34801561018657600080fd5b5061018f6106c1565b60405161019c919061090e565b60405180910390f35b3480156101b157600080fd5b506101ba6106ea565b6040516101c7919061090e565b60405180910390f35b3480156101dc57600080fd5b506101e561070e565b6040516101f2919061090e565b60405180910390f35b34801561020757600080fd5b50610210610734565b60405161021d91906109d6565b60405180910390f35b34801561023257600080fd5b5061023b610747565b6040516102489190610942565b60405180910390f35b34801561025d57600080fd5b5061026661074d565b6040516102739190610942565b60405180910390f35b34801561028857600080fd5b50610291610753565b60405161029e9190610942565b60405180910390f35b3480156102b357600080fd5b506102bc610759565b005b6000600560009054906101000a900473ffffffffffffffffffffffffffffffffffffffff16905090565b600360009054906101000a900460ff1615610338576040517f08c379a000000000000000000000000000000000000000000000000000000000815260040161032f90610a4e565b60405180910390fd5b60045434600660003373ffffffffffffffffffffffffffffffffffffffff1673ffffffffffffffffffffffffffffffffffffffff168152602001908152602001600020546103869190610a9d565b116103c6576040517f08c379a00000000000000000000000000000000000000000000000000000000081526004016103bd90610b65565b60405180910390fd5b60008054906101000a900473ffffffffffffffffffffffffffffffffffffffff1673ffffffffffffffffffffffffffffffffffffffff163373ffffffffffffffffffffffffffffffffffffffff1603610454576040517f08c379a000000000000000000000000000000000000000000000000000000000815260040161044b90610bd1565b60405180910390fd5b3460048190555033600560006101000a81548173ffffffffffffffffffffffffffffffffffffffff021916908373ffffffffffffffffffffffffffffffffffffffff16021790555060045460066000600560009054906101000a900473ffffffffffffffffffffffffffffffffffffffff1673ffffffffffffffffffffffffffffffffffffffff1673ffffffffffffffffffffffffffffffffffffffff168152602001908152602001600020600082825461050f9190610a9d565b925050819055503373ffffffffffffffffffffffffffffffffffffffff167fe684a55f31b79eca403df938249029212a5925ec6be8012e099b45bc1019e5d23460405161055c9190610942565b60405180910390a2565b600360009054906101000a900460ff166105b5576040517f08c379a00000000000000000000000000000000000000000000000000000000081526004016105ac90610c3d565b60405180910390fd5b60006004549050600081116105ff576040517f08c379a00000000000000000000000000000000000000000000000000000000081526004016105f690610ca9565b60405180910390fd5b60006004819055503373ffffffffffffffffffffffffffffffffffffffff166108fc829081150290604051600060405180830381858888f1935050505015801561064d573d6000803e3d6000fd5b503373ffffffffffffffffffffffffffffffffffffffff167f884edad9ce6fa2440d8a54cc123490eb96d2768479d49ff9c7366125a9424364826040516106949190610942565b60405180910390a250565b6000600454905090565b60066020528060005260406000206000915090505481565b60008060009054906101000a900473ffffffffffffffffffffffffffffffffffffffff16905090565b60008054906101000a900473ffffffffffffffffffffffffffffffffffffffff1681565b600560009054906101000a900473ffffffffffffffffffffffffffffffffffffffff1681565b600360009054906101000a900460ff1681565b60025481565b60045481565b60015481565b60008054906101000a900473ffffffffffffffffffffffffffffffffffffffff1673ffffffffffffffffffffffffffffffffffffffff163373ffffffffffffffffffffffffffffffffffffffff16146107e7576040517f08c379a00000000000000000000000000000000000000000000000000000000081526004016107de90610d3b565b60405180910390fd5b600360009054906101000a900460ff1615610837576040517f08c379a000000000000000000000000000000000000000000000000000000000815260040161082e90610a4e565b60405180910390fd5b6001600360006101000a81548160ff02191690831515021790555042600281905550600560009054906101000a900473ffffffffffffffffffffffffffffffffffffffff1673ffffffffffffffffffffffffffffffffffffffff167fdaec4582d5d9595688c8c98545fdd1c696d41c6aeaeb636737e84ed2f5c00eda6004546040516108c39190610942565b60405180910390a2565b600073ffffffffffffffffffffffffffffffffffffffff82169050919050565b60006108f8826108cd565b9050919050565b610908816108ed565b82525050565b600060208201905061092360008301846108ff565b92915050565b6000819050919050565b61093c81610929565b82525050565b60006020820190506109576000830184610933565b92915050565b600080fd5b61096b816108ed565b811461097657600080fd5b50565b60008135905061098881610962565b92915050565b6000602082840312156109a4576109a361095d565b5b60006109b284828501610979565b91505092915050565b60008115159050919050565b6109d0816109bb565b82525050565b60006020820190506109eb60008301846109c7565b92915050565b600082825260208201905092915050565b7f41756374696f6e20616c726561647920656e6465642e00000000000000000000600082015250565b6000610a386016836109f1565b9150610a4382610a02565b602082019050919050565b60006020820190508181036000830152610a6781610a2b565b9050919050565b7f4e487b7100000000000000000000000000000000000000000000000000000000600052601160045260246000fd5b6000610aa882610929565b9150610ab383610929565b9250827fffffffffffffffffffffffffffffffffffffffffffffffffffffffffffffffff03821115610ae857610ae7610a6e565b5b828201905092915050565b7f546865726520697320616c7265616479206120686967686572206f722065717560008201527f616c206269642e00000000000000000000000000000000000000000000000000602082015250565b6000610b4f6027836109f1565b9150610b5a82610af3565b604082019050919050565b60006020820190508181036000830152610b7e81610b42565b9050919050565b7f4f776e65722063616e6e6f742063616c6c20746869732066756e6374696f6e2e600082015250565b6000610bbb6020836109f1565b9150610bc682610b85565b602082019050919050565b60006020820190508181036000830152610bea81610bae565b9050919050565b7f41756374696f6e206e6f742079657420656e6465642e00000000000000000000600082015250565b6000610c276016836109f1565b9150610c3282610bf1565b602082019050919050565b60006020820190508181036000830152610c5681610c1a565b9050919050565b7f596f752068617665206e6f2066756e647320746f2077697468647261772e0000600082015250565b6000610c93601e836109f1565b9150610c9e82610c5d565b602082019050919050565b60006020820190508181036000830152610cc281610c86565b9050919050565b7f4f6e6c79206f776e65722063616e2063616c6c20746869732066756e6374696f60008201527f6e2e000000000000000000000000000000000000000000000000000000000000602082015250565b6000610d256022836109f1565b9150610d3082610cc9565b604082019050919050565b60006020820190508181036000830152610d5481610d18565b905091905056fea2646970667358221220dd3a2b613299dd3e97d104e22ee2b58fbe0e009ddaa380a6797adf9db77dcd5d64736f6c634300080d0033",
  "immutableReferences": {},
  "source": "// SPDX-License-Identifier: SEE LICENSE IN LICENSE\npragma solidity 0.8.13;\n\ncontract Auction {\n    // auction\n    address public owner;\n    uint256 public startTimestamp;\n    uint256 public endTimestamp;\n    bool public isEnded;\n\n    // money\n    uint256 public highestBid;\n    address public highestBidder;\n    mapping(address => uint256) public bids;\n\n    // events\n    event Bid(address indexed _bidder, uint256 _amount);\n    event AuctionEnded(address indexed _winner, uint256 _amount);\n    event Withdraw(address indexed _bidder, uint256 _amount);\n\n    // modifiers\n    modifier onlyOwner() {\n        require(msg.sender == owner, \"Only owner can call this function.\");\n        _;\n    }\n\n    modifier onlyNotOwner() {\n        require(msg.sender != owner, \"Owner cannot call this function.\");\n        _;\n    }\n\n    modifier onlyBeforeEnd() {\n        require(!isEnded, \"Auction already ended.\");\n        _;\n    }\n\n    modifier onlyAfterEnd() {\n        require(isEnded, \"Auction not yet ended.\");\n        _;\n    }\n\n    modifier sufficientBalance() {\n        require(\n            bids[msg.sender] + msg.value > highestBid,\n            \"There is already a higher or equal bid.\"\n        );\n        _;\n    }\n\n    constructor() {\n        owner = msg.sender;\n        startTimestamp = block.timestamp;\n        isEnded = false;\n    }\n\n    function getOwner() public view returns (address) {\n        return owner;\n    }\n\n    function bid() public payable onlyBeforeEnd sufficientBalance onlyNotOwner {\n        // update highest bid\n        highestBid = msg.value;\n        highestBidder = msg.sender;\n\n        bids[highestBidder] += highestBid;\n\n        // emit event\n        emit Bid(msg.sender, msg.value);\n    }\n\n    function endAuction() public onlyOwner onlyBeforeEnd {\n        // update state\n        isEnded = true;\n        endTimestamp = block.timestamp;\n\n        // emit event\n        emit AuctionEnded(highestBidder, highestBid);\n    }\n\n    // auction owner can withdraw max bid\n    function withdraw() public onlyAfterEnd {\n        uint256 amount = highestBid;\n        require(amount > 0, \"You have no funds to withdraw.\");\n        highestBid = 0;\n        payable(msg.sender).transfer(amount);\n        emit Withdraw(msg.sender, amount);\n    }\n\n    function getHighestBidder() public view returns (address) {\n        return highestBidder;\n    }\n\n    function getHighestBid() public view returns (uint256) {\n        return highestBid;\n    }\n}\n",
  "sourcePath": "/Users/blackbird/Library/Mobile Documents/com~apple~CloudDocs/Documents/Codes/Blockchain/dapp-example/contracts/Auction.sol",
  "compiler": {
    "name": "solc",
    "version": "0.8.13+commit.abaa5c0e.Emscripten.clang"
  },
  "schemaVersion": "3.4.16",
  "updatedAt": "2023-11-13T12:23:27.114Z",
  "devdoc": {
    "kind": "dev",
    "methods": {},
    "version": 1
  },
  "userdoc": {
    "kind": "user",
    "methods": {},
    "version": 1
  }
}